:020000040800F2
:10000000D824002001010008090100080B010008A4
:100010000D0100080F010008110100080000000098
:1000200000000000000000000000000013010008B4
:100030001501000800000000170100081901000860
:100040001B0100081B0100081B0100081B01000820
:100050001B0100081B0100081B0100081B01000810
:100060001B0100081B0100081B0100081B01000800
:100070001B0100081B0100081B0100081B010008F0
:100080001B0100081B0100081B0100081B010008E0
:100090001B0100081B0100081B0100081B010008D0
:1000A0001B0100081B0100081B0100081B010008C0
:1000B0001B0100081B010008F91700081B010008BC
:1000C0001B0100081B0100081B0100081B010008A0
:1000D0001B010008930600087D1600081B0100089C
:1000E0001B0100081B0100081B010008DFF80CD0F1
:1000F00004F0F6F80048004725010008D824002045
:100100000648804706480047FEE7FEE7FEE7FEE7B1
:10011000FEE7FEE7FEE7FEE7FEE7FEE7AF3D00088D
:10012000ED0000084FF4A06002F0D2F800F0D4FA1D
:1001300000F08AFA02F038F80020D3490860012064
:10014000D249C1F89801D249086001F05FFF002050
:1001500001F001FC002001F00CFC01F03CFC0C2340
:10016000CCA23421482001F0D7FD01F034FC41F647
:100170001F41C72002F05EF80421C94803F060FB6C
:10018000C8A004F079F94FF4614001F0A6FA00F03C
:100190000DFBC7A004F070F915E04FF4C87000F033
:1001A000D8FAC8A004F068F90C23CAA214213020A0
:1001B00001F0B2FD01F00FFC4FF4487000F0C9FAF5
:1001C000C7A004F059F9CB4801F00BF80028E4D19E
:1001D000C9A004F051F9C7484FF461410268C9A0B1
:1001E00004F04AF9CD4800F0C5FF044614B120469A
:1001F00001F040F8CA4800F072FD04464CB9C84806
:1002000082780088C54B1B88C11AC6A004F034F957
:1002100002E0204601F02EF801F000FC102300223D
:100220002021084601F0DEFD10230122202130208C
:1002300001F0D8FD102302222021402001F0D2FD40
:10024000102303222021502001F0CCFD2023002286
:100250001146302001F0C6FD0C23B9A23421002044
:1002600001F05AFD01F0B7FB0CE10020864908318E
:1002700008600221B84802F08CF901280DD10A204B
:1002800000F067FA0221B44802F083F9012804D192
:10029000B24908600020B24908607B488C38006889
:1002A00070B3AE48006858BB00207949086001204F
:1002B0007649C1F8980110230E222021084601F04A
:1002C00091FD10230F222021302001F08BFD1023FF
:1002D0000A222021402001F085FD10230B2220213D
:1002E000502001F07FFD01F076FB642000F031FA30
:1002F00001F02DF8012066490860322000F029FA4B
:100300009648006800287DD000209449086020238A
:1003100001220021302001F065FD2023022200216E
:10032000502001F05FFD102304222021084601F037
:1003300059FD102305222021302001F053FD102308
:1003400006222021402001F04DFD1023072220210C
:10035000502001F047FD0C2382A23421002001F03F
:10036000DBFC01F038FB0420844908600DE0834881
:10037000008881B24A4803F063FA322000F0E9F9BC
:100380007E480068401C7D4908607C4800680A2857
:10039000EDDB4FF4967000F0DCF97148006890B125
:1003A0000020394908600C2375A20021084601F09D
:1003B000B3FC01F010FBFA2000F0CBF90120334927
:1003C000C1F8900102E0012065490860FA2000F0C0
:1003D000C0F94FF47A7000F0BCF94FF47A7000F075
:1003E000B8F904212E4803F02BFA4FF4FA7000F00C
:1003F000B0F901F013FB0C2351A23421002001F0CD
:100400008BFC00E024E0202300221146302001F084
:10041000E9FC102300222021084601F0E3FC102310
:1004200001222021302001F0DDFC102302222021B6
:10043000402001F0D7FC102303222021502001F09E
:10044000D1FC01F0C8FA00200F490831086019E01A
:10045000102300222021084601F0C4FC10230122B1
:100460002021302001F0BEFC102302222021402058
:1004700001F0B8FC102303222021502001F0B2FC2F
:1004800001F0A9FAF1E600009001214200002142AA
:10049000B40122426279204E46343034000000001C
:1004A00000040040B3F5CABCBBAFD6D00D0A0000B3
:1004B000D3EBD6B8CEC6C4A3BFE9CED5CAD60D0AF3
:1004C00000000000CEB4BCECB2E2B5BDC4A3BFE9ED
:1004D0000D0A00004E4F2041533630380000000016
:1004E000B3A2CAD4D6D8D0C2C1ACBDD3C4A3BFE9CD
:1004F0000D0A000018000020CDA8D1B6B3C9B9A6D6
:100500000D0A0000B2A8CCD8C2CA3A256420202027
:10051000B5D8D6B73A25780D0A0000000C000020A7
:1005200028190020BFE2C8DDC1BF3A256420202081
:100530002020B6D4B1C8B5C8BCB63A2025640000A6
:10054000282D5F2D29202056312E312D6279204E05
:100550004634303400000000000C01401C00002034
:1005600008000020283E5F3C29202056312E312DE6
:100570006279204E46343034000000000400002030
:100580004265657E207E00001FB54FF41650009036
:100590000020ADF80400ADF80600ADF80800ADF895
:1005A0000C000C20ADF80A006946474803F0CFF96B
:1005B0000121454803F057FA012240F225514248F3
:1005C00003F05DFA4021404803F035FB1FBD08B53C
:1005D00003F0EDFB0121084602F004FA012104209A
:1005E00002F000FA0121880302F0FCF918208DF8CE
:1005F00003004FF40070ADF8000003208DF80200F6
:100600006946324801F032FF4FF48060ADF80000D7
:1006100004208DF8030069462C4801F027FF08BD2F
:1006200008B54FF4C06001F053FE25208DF800009E
:1006300000208DF801008DF8020001208DF80300E4
:10064000684601F04AFE08BD10B5FFF7C0FFFFF78E
:10065000E7FFFFF799FF10BD70B504460D46E1B204
:10066000194803F06DFA00BF1748008800F08000B9
:100670000028F9D0204670BD00BF1348008800F064
:1006800020000028F9D01048001D0088C0F30800A1
:10069000704710B540210C4803F0CDFA40F22551C7
:1006A000094803F0D1FA70B10120094908700648E1
:1006B00003F04AFA0749087000BF8021024803F09E
:1006C000ADFA0028F9D010BD003801400008014003
:1006D000000000200100002010B56FF0040001F0C0
:1006E00046FE2E4800682E49B0FBF1F02D490870F7
:1006F0000846007800EB4001C1EBC0104FF6FF71D7
:1007000001EAC0002849088010BD0146254A127838
:100710004A434FF0E0235A6100229A611A46126957
:1007200042F001021A6100BF4FF0E022106900F0B0
:1007300001021AB100F48032002AF5D04FF0E02215
:10074000126922F001024FF0E0231A6100229A613F
:1007500070470146144A12884A434FF0E0235A6119
:1007600000229A611A46126942F001021A6100BF22
:100770004FF0E022106900F001021AB100F480325B
:10078000002AF5D04FF0E022126922F001024FF06A
:10079000E0231A6100229A617047000010190020BE
:1007A00000127A000E0000201000002008B5012180
:1007B000042002F017F90220ADF8000028208DF87F
:1007C000030003208DF802006946F74801F04EFE51
:1007D00008BD00BFF549098801F040010029F9D0A2
:1007E000F249091D0880704710B5EF20FFF7F1FFAF
:1007F0000120FFF7EEFF10BD10B5ED490968080EA6
:10080000FFF7E7FFEA480068C0F30740FFF7E1FFA2
:10081000E7480088C0F30720FFF7DBFFE4490878CA
:10082000FFF7D7FF10BD10B504462046FFF7D1FFF4
:1008300010BD10B50446C4F30720FFF7CAFFE0B2AD
:10084000FFF7C7FF10BD10B504462046FFF7C1FFF4
:1008500010BD10B504462012FFF7BBFFE0B2FFF752
:10086000B8FF10BD7CB50546EF208DF800000120D3
:100870008DF80100CE480068000E8DF80200CC48CB
:100880000068000C8DF80300C9480088000A8DF844
:100890000400C74800788DF8050007208DF8060091
:1008A00000208DF80700C349088012E00120FFF7FF
:1008B00050FFC048008800F4004050B10020BD49FE
:1008C00008806946BC4803F0F3FA04460CB12046A0
:1008D0007CBD681E80B2051EE8D100BFF8E770B588
:1008E000FFF782FFFFF788FF0120FFF79CFF03203F
:1008F000FFF79FFF0120FFF7A6FF05263046FFF711
:10090000A8FF4FF4FA60FFF7ADFF05460DB16C7A12
:1009100000E0FF24204670BD2DE9F0410546FFF7B9
:1009200063FFFFF769FF0120FFF77DFF0420FFF75A
:1009300080FF0220FFF787FF2846FFF74AFFEF1DE1
:100940003846FFF786FF4FF4FA60FFF78BFF064645
:100950000EB1747A00E0FF242046BDE8F08170B546
:10096000FFF742FFFFF748FF0120FFF75CFF03207E
:10097000FFF75FFF0320FFF766FF07263046FFF70C
:1009800068FF4FF4FA60FFF76DFF05460DB16C7A12
:1009900000E0FF24204670BD2DE9F04781460D465A
:1009A00016461F46FFF720FFFFF726FF0120FFF73F
:1009B0003AFF0820FFF73DFF0420FFF744FF4846B9
:1009C000FFF707FF2812FFF704FFE8B2FFF701FF68
:1009D0003012FFF7FEFEF0B2FFF7FBFE09F10D004B
:1009E00000EB2520E9B2084400EB2620F1B200EB31
:1009F000010A5046FFF72DFF4FF4FA60FFF732FF70
:100A0000044664B194F80980E07AA17A00EB0120F1
:100A10003880607B217B00EB0120788001E04FF083
:100A2000FF084046BDE8F08770B5FFF7DDFEFFF731
:100A3000E3FE0120FFF7F7FE0320FFF7FAFE052093
:100A4000FFF701FF09263046FFF703FF4FF4FA6076
:100A5000FFF708FF05460DB16C7A00E0FF24204641
:100A600070BD2DE9F04106460C46FFF7BDFEFFF7CD
:100A7000C3FE0120FFF7D7FE0620FFF7DAFE0620AF
:100A8000FFF7E1FE3046FFF7A4FE2012FFF7A1FEBC
:100A9000E0B2FFF79EFE06F10D0000EB2420E1B26C
:100AA00000EB01084046FFF7D4FE4FF4FA60FFF771
:100AB000D9FE07460FB17D7A00E0FF252846BDE844
:100AC000F0812DE9F04104460D46FFF78DFEFFF75A
:100AD00093FE0120FFF7A7FE0720FFF7AAFE0C20D8
:100AE000FFF7B1FE2012FFF774FEE0B2FFF771FED0
:100AF0002812FFF76EFEE8B2FFF76BFE142000EB42
:100B00002420E1B2084400EB2520E9B200EB010803
:100B10004046FFF79EFE4FF4FA60FFF7A3FE07463C
:100B20000FB17E7A00E0FF263046BDE8F08170B557
:100B3000FFF75AFEFFF760FE0120FFF774FE032067
:100B4000FFF777FE0D20FFF77EFE11263046FFF7F8
:100B500080FE4FF4FA60FFF785FE05460DB16C7A12
:100B600000E0FF24204670BD014621297AD2DFE84B
:100B700001F01113151719535557595B60627979B4
:100B8000797964667979796879796A6C6F71737942
:100B90007975770009A06AE009A068E00CA066E01A
:100BA00010A064E014A062E000080140004400408E
:100BB0001800002020000020341900204F4B0000B6
:100BC000CAFDBEDDB0FCBDD3CAD5B4EDCEF3000086
:100BD000B4ABB8D0C6F7C9CFC3BBD3D0CAD6D6B88A
:100BE00000000000C2BCC8EBD6B8CEC6CDBCCFF169
:100BF000CAA7B0DC00000000D6B8CEC6CDBCCFF18D
:100C0000CCABB8C9A1A2CCABB5ADB6F8C9FAB2BBF2
:100C1000B3C9CCD8D5F70000ABA028E0B2A026E03D
:100C2000B8A024E0C5A022E0C7A00122CA4B1A60E8
:100C30001DE0CAA01BE0CDA000BFD5A017E0D8A042
:100C400015E0DBA013E0E3A011E0E6A00FE009E06F
:100C5000E7A00CE0EAA00AE0EEA008E0F2A006E0BF
:100C6000F4A004E0F6A00222BB4B1A6000BF00BF54
:100C700070472DE9F04706460D46FFF7B5FDFFF733
:100C8000BBFD0120FFF7CFFD0520FFF7D2FD0E20B1
:100C9000FFF7D9FD3046FFF79CFD2846FFF799FD89
:100CA000701900F114084046FFF7D3FD4FF4FA60C5
:100CB000FFF7D8FD07460FB17C7A00E0FF241CB98E
:100CC000E4A003F0D9FB07E02046FFF74DFF814683
:100CD0004946E5A003F0D0FB2046BDE8F0872DE9AA
:100CE000F0410546FFF780FDFFF786FD0120FFF785
:100CF0009AFD0320FFF79DFD0F20FFF7A4FD1327AA
:100D00003846FFF7A6FD4FF47A70FFF7ABFD0446B7
:100D1000BCB1667AE07BA17B00EB01202880607C7F
:100D2000A870A07C0006E17C00EB0140217D00EB77
:100D30000120617D08446860E07D2872607E6872F1
:100D400000E0FF26A6B92988C9A003F095FBA97881
:100D5000CDA003F091FBD0A0696803F08DFB687A09
:100D60004FF4165200FB02F1CEA003F085FB07E022
:100D70003046FFF7F9FE80464146BBA003F07CFBFE
:100D80003046BDE8F0812DE9F0410446FFF72CFD27
:100D9000FFF732FD0120FFF746FD0720FFF749FD71
:100DA0001520FFF750FD200EFFF713FDC4F3074099
:100DB000FFF70FFDC4F30720FFF70BFDE0B2FFF7CD
:100DC00008FD1D2000EB1460C4F307410844C4F380
:100DD00007210844E1B247183846FFF73AFDB44806
:100DE00004604FF4FA60FFF73DFD06460EB1757AD8
:100DF00000E0FF25AE4804601DB9AEA003F03CFB47
:100E000007E02846FFF7B0FE8046414696A003F073
:100E100033FB2846BDE8F0812DE9F04781460E46B8
:100E2000FFF7E2FCFFF7E8FC0120FFF7FCFC2420C1
:100E3000FFF7FFFC1820FFF706FD4846FFF7C9FC47
:100E4000002407E0305DFFF7C4FC305D384487B212
:100E5000601CC4B2202CF5DB09F13D00384487B298
:100E60003846FFF7F6FC4FF4FA60FFF7FBFC054647
:100E700015B195F8098001E04FF0FF084046BDE844
:100E8000F0872DE9F04707468846FFF7ADFCFFF7EE
:100E9000B3FC0120FFF7C7FC0420FFF7CAFC1920B0
:100EA000FFF7D1FC3846FFF794FC07F11E094846CE
:100EB000FFF7CFFC4FF4FA60FFF7D4FC064616B1FB
:100EC000757A002407E109E1D6B8CEC6CDBCCFF1D2
:100ED000CCABCAAAA1A2CCABBAFDB6F8C9FAB2BBD8
:100EE000B3C9CCD8D5F70000D6B8CEC6CDBCCFF1AB
:100EF000CCABC2D2B6F8C9FAB2BBB3C9CCD8D5F71D
:100F000000000000D6B8CEC6CDBCCFF1D5FDB3A34E
:100F1000A3ACB5ABCCD8D5F7B5E3CCABC9D9A3A8B6
:100F2000BBF2C3E6BBFDCCABD0A1A3A9B6F8C9FA0E
:100F3000B2BBB3C9CCD8D5F700000000D6B8CEC636
:100F4000B2BBC6A5C5E40000C3BBCBD1CBF7B5BDD2
:100F5000D6B8CEC60000000014000020CCD8D5F7CB
:100F6000BACFB2A2CAA7B0DC00000000B7C3CECA95
:100F7000D6B8CEC6BFE2CAB1B5D8D6B7D0F2BAC5D8
:100F8000B3ACB3F6D6B8CEC6BFE2B7B6CEA70000B4
:100F9000C9BEB3FDC4A3B0E5CAA7B0DC0000000021
:100FA000C7E5BFD5D6B8CEC6BFE2CAA7B0DC000041
:100FB000BBBAB3E5C7F8C4DAC3BBD3D0D3D0D0A78C
:100FC000D4ADCABCCDBCB6F8C9FAB2BBB3C9CDBCAE
:100FD000CFF10000B6C1D0B420464C41534820B3F5
:100FE000F6B4ED00CEB4B6A8D2E5B4EDCEF3000071
:100FF000CEDED0A7BCC4B4E6C6F7BAC50000000078
:10100000BCC4B4E6C6F7C9E8B6A8C4DAC8DDB4ED16
:10101000CEF30000BCC7CAC2B1BED2B3C2EBD6B8D1
:10102000B6A8B4EDCEF30000D6B8CEC6BFE2C2FA81
:1010300000000000B5D8D6B7B4EDCEF30000000034
:10104000C4A3BFE9B7B5BBD8C8B7C8CFC2EBD3D02C
:10105000CEF300000D0AC9E8D6C3B2CECAFDB3C9AB
:10106000B9A6A3A1000000000D0A2573000000002E
:101070000D0AC4A3BFE9D7EEB4F3D6B8CEC6C8DD17
:10108000C1BF3D25640000000D0AB6D4B1C8B5C883
:10109000BCB63D25640000000D0AB5D8D6B73D2585
:1010A000780000000D0AB2A8CCD8C2CA3D25640061
:1010B000180000200D0AC9E8D6C3B5D8D6B7B3C901
:1010C000B9A6A3A10000000004F10A00305C08F8F2
:1010D0000400601CC4B2202CF6DB00E0FF2528468B
:1010E000BDE8F0872DE9F04781460D4616461F46BC
:1010F000FFF77AFBFFF780FB0120FFF794FB082046
:10110000FFF797FB1B20FFF79EFB4846FFF761FBAD
:101110002812FFF75EFBE8B2FFF75BFB3012FFF728
:1011200058FBF0B2FFF755FB09F1240000EB252036
:10113000E9B2084400EB2620F1B200EB010A504668
:10114000FFF787FB4FF4FA60FFF78CFB044664B1AE
:1011500094F80980E07AA17A00EB01203880607B66
:10116000217B00EB0120788001E04FF0FF08404632
:10117000BDE8F0872DE9F0410646FFF735FBFFF7A4
:101180003BFB0120FFF74FFB0320FFF752FB1D2025
:10119000FFF759FB21273846FFF75BFB4FF4FA6056
:1011A000FFF760FB044634B1657AE07AA17A00EB80
:1011B0000120308000E0FF253DB9E07AA27A00EB03
:1011C000022125A003F058F908E02846FFF7CCFCDF
:1011D00080464146AFF2701003F04EF92846BDE854
:1011E000F08110B50446FFF7FFFAFFF705FB012079
:1011F000FFF7EFFA0020FFF7ECFA0020FFF7E9FA1B
:10120000C820FFF7A6FA1948008800F4004008B388
:1012100017480078EF281AD115484078012816D1D0
:1012200013488079072812D11148807800061049A8
:10123000C97800EB01400E49097900EB01200C4907
:1012400049790844206000200849088010BD00202A
:10125000064908800120F9E70D0AD3D0D0A7D6B8F7
:10126000CEC6B8F6CAFD3D2564000000200000206F
:101270003419002070B504462046FFF775FC05467A
:101280002946A9A003F0F8F8AC480068012802D06C
:1012900002285AD138E00020A9490860102308220A
:1012A0002021084600F09EFD102309222021302035
:1012B00000F098FD10230A222021402000F092FD2A
:1012C00010230B222021502000F08CFD00F083FB26
:1012D000FA20FFF73EFA01209A49C1F89001FA205E
:1012E000FFF737FA002096490860FA20FFF731FA35
:1012F00001209449C1F89001FA20FFF72AFA002052
:101300008F490831086020E010230C222021084674
:1013100000F068FD10230D222021302000F062FD36
:10132000102302222021402000F05CFD1023032224
:101330002021502000F056FD00F04DFB4FF4FA70D4
:10134000FFF707FA00F047FB00BF00BF70BD38B5DC
:10135000FFF7C5FA0446002C22D10120FFF7DCFA82
:101360000446D4B9784802886B4600210120FFF773
:10137000B9FE04466CB975A003F07EF801207749E8
:101380000860BDF80220BDF8001075A003F074F8E5
:1013900006E02046FFF76EFF02E02046FFF76AFFF7
:1013A00038BD2DE9F04105464FF000089DE0B8F149
:1013B000050F20D2DFE808F003203D576E00701CB7
:1013C000C6B26EA003F058F8FFF789FA04467CB95C
:1013D0000120FFF7A1FA044634B96BA003F04CF8E2
:1013E00000264FF0010806E02046FFF743FF02E029
:1013F0002046FFF73FFF6DE0701CC6B265A003F00A
:101400003BF8FFF76CFA04467CB90220FFF784FA38
:10141000044634B95CA003F02FF800264FF0020810
:1014200006E02046FFF726FF02E02046FFF722FFF6
:1014300050E05DA003F020F8FFF791FA04462CB9C4
:101440005DA003F019F84FF0030807E060A003F077
:1014500013F82046FFF70EFF0026B0464FF49660C3
:10146000FFF777F936E061A003F006F8FFF7DCFA42
:1014700004462CB961A002F0FFFF4FF0040804E01D
:101480004FF000082046FFF7F5FE4FF49660FFF797
:1014900060F91FE05EA002F0EFFF61A002F0ECFF38
:1014A00000BF2F4628480088B842FADD394602209E
:1014B000FFF7D7FA04463CB95DA002F0DDFF6048B3
:1014C000FFF758FEBDE8F0814FF000082046FFF717
:1014D000D1FE00BF00BF4FF47A70FFF73AF9052E36
:1014E00003D158A002F0C8FF00E060E700BF00BFD2
:1014F000E8E770B505465AA002F0BEFF0121284674
:10150000FFF7DFFA04461CB958A002F0B5FF02E06D
:101510002046FFF7AFFE4FF49660FFF71AF94848F0
:10152000FFF728FE70BD00000D0AB4EDCEF3D0C564
:10153000CFA2A3BA2573200D0A00000014000020DA
:10154000900121420000214228190020CBA2D6B8E8
:10155000CEC6B3C9B9A60D0A000000001C000020C9
:10156000C8B7D3D0B4CBC8CB2C49443A256420208B
:10157000C6A5C5E4B5C3B7D63A256400C7EBB0B479
:10158000D6B8CEC60D0A0000D6B8CEC6D5FDB3A3D8
:101590000D0A0000C7EBB0B4D4D9B0B4D2BBB4CEFE
:1015A000D6B8CEC60D0A0000B6D4B1C8C1BDB4CEFF
:1015B000D6B8CEC60D0A0000B6D4B1C8B3C9B9A614
:1015C0002CC1BDB4CED6B8CEC6D2BBD1F90D0A005F
:1015D000B6D4B1C8CAA7B0DCA3ACC7EBD6D8D0C2CA
:1015E000C2BCC8EBD6B8CEC60D0A0000C9FAB3C952
:1015F000D6B8CEC6C4A3B0E50D0A0000C9FAB3C977
:10160000D6B8CEC6C4A3B0E5B3C9B9A60D0A0000CA
:10161000B4A2B4E6D6B8CEC649440D0A0000000014
:10162000303D3C204944203C3D3239390D0A000010
:10163000C2BCC8EBD6B8CEC6B3C9B9A60D0A000065
:101640000C000020B3ACB9FD35B4CEC3BBD3D0B0D1
:10165000B4CAD6D6B8D4F2CDCBB3F60D0A0000008A
:10166000C9BEB3FDD6B8CEC60D0A0000C9BEB3FDD3
:10167000D6B8CEC6B3C9B9A60D0A000010B540F25F
:101680002551564802F0E0FAF8B1544802F05CFAED
:10169000C4B25348008800F40040B0B950480088F4
:1016A000B0F5C87F12DA00214E4802F0C3F84C486A
:1016B000008818B901214B4801F028FE48490888E4
:1016C000411C474A118048490C5405E044480088B1
:1016D00040F400404249088010BD10B586B0044671
:1016E0000121042001F07EF90121480401F087F96D
:1016F0003A4802F0E9F80420ADF8100003208DF814
:10170000120018208DF8130004A9384800F0AEFE2E
:101710000820ADF8100004208DF8130004A9344807
:1017200000F0A4FE00940020ADF80400ADF806001F
:10173000ADF80800ADF80C000C20ADF80A006946C1
:10174000264802F004F90121244802F08CF9012214
:1017500040F22551214802F092F926208DF814001C
:1017600002208DF8150003208DF8160001208DF859
:10177000170005A800F0B1FD41F61F41632000F0FD
:1017800050F80020164908800021164801F0BEFDDF
:1017900006B010BD0FB438B505A800901548009AE2
:1017A000049902F079FE00200090124802F092FBAA
:1017B00085B200240DE000BF4021084802F02EFA57
:1017C0000028F9D00B48015D044802F0B9F9601C0B
:1017D00084B2AC42EFDB38BC5DF814FB004400403F
:1017E00020000020000800403419002000080140BB
:1017F000000C0140C41A002010B501211F4802F05E
:101800004EF868B11E48008840F400401C4908802A
:1018100001211A4802F054F80021184801F076FD21
:1018200010BD7FB505460C460121042001F0E7F804
:10183000ADF80450ADF800400020ADF80600ADF85A
:10184000020069460D4801F005FA012211460B48D5
:1018500001F077FD0121094801F058FD1E208DF8A7
:101860000C0000208DF80D0002208DF80E000120E4
:101870008DF80F0003A800F030FD7FBD0008004088
:101880002000002010B52021FB4800F09CFE8021A4
:10189000F94800F09AFE8021F74800F094FE10BD50
:1018A00010B52021F44800F08EFE2021F24800F00F
:1018B0008CFE10BD70B5044600251BE02021EE48CB
:1018C00000F083FE04F0800020B18021EA4800F09F
:1018D0007AFE03E08021E84800F077FE2021E64808
:1018E00000F071FE2021E44800F06FFE6006040E57
:1018F000681CC5B2082DE1DB70BD10B58021DE4843
:1019000000F061FE2021DC4800F05DFE8021DA4815
:1019100000F05BFE2021D84800F057FE10BD70B5E6
:1019200005460C46FFF7E9FF7820FFF7C3FFFFF7F6
:10193000B7FF1CB14020FFF7BDFF02E00020FFF71A
:10194000B9FFFFF7ADFF2846FFF7B4FFFFF7A8FF89
:10195000FFF798FF70BD10B504461CB90021A62002
:10196000FFF7DDFF012C03D10021A720FFF7D7FFF0
:1019700010BD10B504463CB90021C820FFF7CFFFC9
:101980000021A120FFF7CBFF012C07D10021C020AF
:10199000FFF7C5FF0021A020FFF7C1FF10BD10B564
:1019A00000218D20FFF7BBFF00211420FFF7B7FFB8
:1019B0000021AF20FFF7B3FF10BD10B500218D202F
:1019C000FFF7ADFF00211020FFF7A9FF0021AF2096
:1019D000FFF7A5FF10BD70B500241CE004F1B001B5
:1019E000C8B20021FFF79BFF00210846FFF797FFD1
:1019F00000211020FFF793FF002508E09F4901EB2D
:101A0000C501085D0121FFF78AFF681CC5B2802D62
:101A1000F4DB601CC4B2082CE0DB70BD70B50024A0
:101A20000CE0002506E00020944901EBC5010855B3
:101A3000681CC5B2802DF6DB601CC4B2082CF0DB3C
:101A4000FFF7C9FF70BD70B50A46CE1701EB567699
:101A5000C6F3C703CE1701EB5676F610A1EBC60608
:101A6000F4B20122A240D5B2844A02EBC002D25C99
:101A70002A43824E06EBC006F25470BD70B50B4689
:101A8000CE1701EB5676C6F3C702CE1701EB56769A
:101A9000F610A1EBC606F4B20123A340DDB2774BEA
:101AA00003EBC0039B5CDB43744E06EBC006B354F0
:101AB000724B03EBC0039B5C2B43704E06EBC006DE
:101AC000B3546E4B03EBC0039B5CDB436B4E06EBE6
:101AD000C006B35470BD2DE9F84F05460E461746B3
:101AE0009846002D0ADB802F08DC002E06DBB8F1BB
:101AF000400F03DCBD4201DC464501DDBDE8F88F47
:101B0000BD420DD1002406E03019C1B22846FFF7CE
:101B10009AFF601CC4B2A8EB0600A042F4DC30E0DF
:101B200046450CD1002406E02919C8B23146FFF71A
:101B30008AFF601CC4B2781BA042F5DC21E0A8EB50
:101B4000060000F0FF0A781B00F0FF0B0AEB8A008A
:101B5000400090FBFBF000F0FF0900240EE004FBC6
:101B600009F00A2190FBF1F03044C0B2291900902D
:101B7000C8B20099FFF767FF601CC4B2781BA0428F
:101B8000EDDC00BFBAE72DE9F04306460F4690466C
:101B9000002544463BE03A1BD1B27219D0B2FFF7A0
:101BA00052FF3A1BD1B2721BD0B2FFF74CFF3A1969
:101BB000D1B2721BD0B2FFF746FF3A19D1B27219F7
:101BC000D0B2FFF740FF7A19D1B23219D0B2FFF785
:101BD0003AFF7A1BD1B23219D0B2FFF734FF7A1B29
:101BE000D1B2321BD0B2FFF72EFF7A19D1B2321B1D
:101BF000D0B2FFF728FF6D1C05FB05F004FB0400C5
:101C000008FB1809B9F1000F01DD641E6D1E6000AC
:101C1000604308FB08F18842BDDABDE8F0832DE996
:101C2000FF4F81B080460E461C4600962046E317C3
:101C300004EB5373DB1021464FEAE47C04EB5C7C3D
:101C40004FEAEC0CA4EBCC0CBCF1000F02D04FF02F
:101C5000010C01E04FF0000C6344224604EBD27CFF
:101C60004FEA6C0C03FB0CF303F0FF0B03982038D6
:101C7000C7B200254CE0000000080140541C0020C1
:101C80000C2C07D107EB4700FE4901EB800010F850
:101C900005A014E0102C05D1FB4800EB071010F84C
:101CA00005A00CE0182C07D107EBC700F74901EBA2
:101CB000800010F805A002E005B0BDE8F08F4FF0FD
:101CC00000091FE00AF0800020B131464046FFF7CE
:101CD000BAFE03E031464046FFF7D0FE4FEA4A60C5
:101CE0004FEA106A701CC6B20098301AA04205D1A3
:101CF000009E08F1010000F0FF0806E009F1010074
:101D000000F0FF09B9F1080FDCDB00BF681CC5B2A9
:101D10005D45B5DB00BFCFE7F0B506460F4614467C
:101D20001D4613E022782B4639463046FFF777FFF1
:101D3000284605EBD07106EB6101CEB2C5F18000FB
:101D4000B04202DA0026B81CC7B2641C20782028F2
:101D500002DB20787E28E5DDF0BD10B502460120CB
:101D600000E050430B1EA1F10104E1B2F9D110BD16
:101D70002DE9F04F06468A4691461F46099C0025EC
:101D80002CE0781B401EC1B20A20FFF7E6FFB9FB2A
:101D9000F0F00A21B0FBF1F201FB1208B8F1000FDC
:101DA0000CD1A34604EBDB71491001FB0561C8B2FD
:101DB000234630225146FFF732FF0DE0A34604EBE5
:101DC000DB71491001FB0561C8B208F13001CAB2EC
:101DD00023465146FFF723FF681CC5B2BD42D0DB46
:101DE000BDE8F08F2DE9FF4F0746884691461C4617
:101DF0004FF0000B0297CDF804802046E11704EB6A
:101E00005171C1F3C701009160E009FB04F0C117F3
:101E100000EB51710BEBE101CEB20BF1010000F0D0
:101E2000FF0B002550E0102C05D1994800EB06105F
:101E3000405D03901BE0182C07D106EBC6009549C6
:101E400001EBC000405D039011E0202C05D19248C9
:101E500000EBC610405D039009E0402C05D18F488F
:101E600000EB4620405D039001E0BDE8FF8F4FF09E
:101E7000000A17E0039800F0010020B141463846FF
:101E8000FFF7E1FD03E041463846FFF7F7FD039811
:101E90004010039008F1010000F0FF080AF1010072
:101EA00000F0FF0ABAF1080FE4DB781CC7B2029811
:101EB000381AA04204D1029F01980830C0B20190A4
:101EC000DDF80480681CC5B2A542ACDB0098411E59
:101ED000C9B20091002898D100BFC6E78046894664
:101EE0000026002749E03FB9102332461821802000
:101EF000FFF778FF701CC6B2464522D14FF0000AAA
:101F00001AE0002410E000250AE0654800EBC40058
:101F1000415D601E624A02EBC0004155681CC5B2BB
:101F2000082DF2DB601CC4B2902CECDBFFF753FDF4
:101F30000AF1010000F0FF0A4FEA09105045E0DC09
:101F40000026781CC7B2102F00D10027002410E013
:101F500000250AE0524800EBC400415D601E504A73
:101F600002EBC0004155681CC5B2082DF2DB601CB5
:101F7000C4B2902CECDBFFF72EFDB4E770B504463D
:101F80000D4605F1B001C8B20021FFF7C8FC1021D1
:101F900041EA14100021FFF7C2FC04F00F0141F0E8
:101FA00001000021FFF7BBFC70BD2DE9F05F054685
:101FB0000E4617469846DDF828B04FF00009CA468D
:101FC0000024E11704EB5171C910A4EBC10101B960
:101FD00001E0601CC4B2344614E021462846FFF7F5
:101FE000CDFFAA460AE01BF809000121FFF797FC84
:101FF00009F101090AF1010000F0FF0ABA45F2DB1C
:10200000601CC4B24445E8DBBDE8F09F08B501217F
:10201000042000F0E7FCB020ADF8000010208DF89F
:10202000030003208DF8020069461E4800F01EFAE6
:10203000B0211C4800F0C7FA0121082000F0D2FCB2
:1020400040F20310ADF8000010208DF803000320CB
:102050008DF802006946144800F008FA40F20311B6
:10206000114800F0B0FA01210F4800F0ACFA6420EA
:10207000FEF76FFB01210C4800F0A7FAC820FEF71D
:1020800068FB13E058500008CC540008BC5A000804
:102090002200002022020020FA020020FA0800207C
:1020A000541C002000080140000C014001213D4863
:1020B00000F089FA02213B4800F087FA0021AE20A7
:1020C000FFF72DFC00210846FFF729FC0021102016
:1020D000FFF725FC00214020FFF721FC0021812093
:1020E000FFF71DFC0021CF20FFF719FC0021A120E4
:1020F000FFF715FC0021C820FFF711FC0021A620E6
:10210000FFF70DFC0021A820FFF709FC00213F206C
:10211000FFF705FC0021D320FFF701FC0021084652
:10212000FFF7FDFB0021D520FFF7F9FB0021802000
:10213000FFF7F5FB0021D920FFF7F1FB0021F1208B
:10214000FFF7EDFB0021DA20FFF7E9FB0021122069
:10215000FFF7E5FB0021DB20FFF7E1FB002140203A
:10216000FFF7DDFB00212020FFF7D9FB0021022033
:10217000FFF7D5FB00218D20FFF7D1FB00211420B4
:10218000FFF7CDFB0021A420FFF7C9FB0021A6200B
:10219000FFF7C5FB0021AF20FFF7C1FBFFF73EFCB7
:1021A00008BD0000000C014008B50121142000F01A
:1021B00019FC4020ADF8000010208DF8030003202A
:1021C0008DF802006946184800F050F94021164881
:1021D00000F0F9F91020ADF8000014208DF803008C
:1021E00003208DF8020069460F4800F03FF91021E6
:1021F0000D4800F0E8F94FF40050ADF800006946D2
:102200000A4800F033F94FF40051084800F0DBF9B8
:102210000220ADF8000028208DF80300694604482C
:1022200000F024F908BD0000000801400010014042
:10223000000C014030B589B005460C460121022052
:1022400000F0DDFB0121042000F0CCFB01211D4842
:1022500000F0DDF92020ADF8200018208DF82300D3
:1022600003208DF8220008A9174800F0FFF8ADF808
:102270001850ADF814400020ADF81A00ADF8160063
:1022800005A9124800F0E6FC6020ADF8040001202A
:10229000ADF806000020ADF80A00ADF80C0001A969
:1022A0000A4800F056FD0821084801F068F90121AC
:1022B000064801F02BF90121044801F027F809B084
:1022C00030BD000000081A00000C0140000400406E
:1022D00031490143314A1160704770B50021002334
:1022E0000F22C47804B32D4C246804F4E064C4F5D0
:1022F000E064210AC1F10403CA40447804FA03F1FE
:102300008478144021430901254C0678A1550478AE
:1023100004F01F050124AC4005786D11AD0005F1F6
:10232000E025C5F8004109E0047804F01F05012408
:10233000AC401C4D0678761145F8264070BD1A4A0F
:102340000A400243154B1B1F1A60704739B1134AEC
:10235000121D12680243114B1B1D1A6006E00F4A42
:10236000121D126882430D4B1B1D1A607047042812
:1023700008D14FF0E021096941F004014FF0E0225B
:10238000116107E04FF0E021096921F004014FF0ED
:10239000E0221161704700000000FA050CED00E03A
:1023A00000E400E080E100E080FFFF1F10B504467C
:1023B000CC48844208D10121042000F02DFB0021EB
:1023C000042000F029FB46E0C748844208D10121DF
:1023D000082000F021FB0021082000F01DFB3AE05E
:1023E000C248844208D10121102000F015FB0021D1
:1023F000102000F011FB2EE0BD48844208D10121DD
:10240000202000F009FB0021202000F005FB22E045
:10241000B848844208D10121402000F0FDFA002193
:10242000402000F0F9FA16E0B348844208D10121B7
:10243000802000F0F1FA0021802000F0EDFA0AE09F
:10244000AE48844207D10121801500F0E5FA002151
:10245000A01500F0E1FA10BD10B50121084600F00A
:10246000DBFA0021012000F0D7FA10BD2DE9F04180
:10247000024600250026002000230024002791F8B2
:1024800003C00CF00F0591F803C00CF0100CBCF168
:10249000000F03D091F802C04CEA050591F800C086
:1024A000BCF1000F31D0146800202BE04FF0010C7C
:1024B0000CFA00F3B1F800C00CEA03069E4220D1EA
:1024C00083004FF00F0C0CFA03F7BC4305FA03FC32
:1024D0004CEA040491F803C0BCF1280F06D14FF078
:1024E000010C0CFA00FCC2F814C00AE091F803C019
:1024F000BCF1480F05D14FF0010C0CFA00FCC2F8FA
:1025000010C0401C0828D1D31460B1F800C0BCF141
:10251000FF0F34DD546800202EE000F1080C4FF06E
:10252000010808FA0CF3B1F800C00CEA03069E4259
:1025300021D183004FF00F0C0CFA03F7BC4305FACE
:1025400003FC4CEA040491F803C0BCF1280F05D148
:1025500000F1080C08FA0CF8C2F8148091F803C0D6
:10256000BCF1480F07D100F1080C4FF0010808FA40
:102570000CF8C2F81080401C0828CED35460BDE887
:10258000F0814FF6FF710180022181700421C1703A
:1025900070470246002093680B400BB1012000E019
:1025A000002070470146886880B2704702460020CC
:1025B000D3680B400BB1012000E0002070470146BA
:1025C000C86880B2704701617047416170470AB1C5
:1025D000016100E041617047C16070474FF4803293
:1025E0000A43826181618261826982697047024621
:1025F0000020434B18684FF68073184040EA0210E1
:1026000008433F4B186070473E49C8617047F0B5BA
:102610000A46002300240021002500F00046B6F100
:10262000004F02D1364EF16901E0354E7168C0F3BA
:10263000034583B200F44016B6F5401F08D121F0DF
:1026400070612F4E766826F070662D4F7E6012E026
:1026500000F48016B6F5801F06D1032606FA05F4AD
:10266000A14341F0706106E0460D360103FA06F61B
:10267000B14341F0706122B1460D360103FA06F60E
:10268000314300F00046B6F1004F02D11C4EF1611B
:1026900001E01B4E7160F0BD30B500228B071C0FAE
:1026A0000F2303FA04F2164B08338C1053F824302E
:1026B0009343134C08348D1044F8253023468C1076
:1026C00053F824308C07240F00FA04F423430C4CF5
:1026D00008348D1044F8253030BD0A49DC310860DB
:1026E0007047000000080140000C0140001001404C
:1026F0000014014000180140001C0140002001406E
:102700000000014000002042DF48006840F0010066
:10271000DD49086008464068DC490840DA494860FD
:1027200008460068DA490840D7490860084600684A
:1027300020F4802008600846406820F4FE004860CD
:102740004FF41F0088607047CF49096821F4803139
:10275000CD4A11601146096821F480211160B0F55D
:10276000803F03D0B0F5802F0ED106E0C64909683E
:1027700041F48031C44A116007E0C349096841F45B
:10278000A021C14A116000E000BF00BF704710B532
:1027900001460022002300204A11012A02D1BA4C2E
:1027A000236806E0022A02D1B74C236A01E0B64C46
:1027B000636A01F01F02012494401C400CB1012007
:1027C00000E0002010BD38B5002000900024002556
:1027D00000BF3120FFF7DBFF05460098401C00904A
:1027E0000098B0F5A06F01D0002DF2D03120FFF796
:1027F000CEFF08B1012400E00024204638BD014688
:102800000020A14A106820F0F80040EAC1001060E2
:102810007047A04908607047024600209A4B5868EC
:1028200020F47C1042EA01031843974B586070472C
:1028300098490866704701460020934A506820F086
:1028400003000843506070478F48406800F00C0058
:102850007047014600208C4A506820F0F000084381
:102860005060704701460020874A506820F4E060BD
:1028700008435060704701460020834A506820F4A6
:10288000605040EAC1005060704729B17E4A527AD8
:1028900002437D4B5A7204E07B4A527A82437A4B60
:1028A0005A7270477B49D831086070470146002052
:1028B000754A506820F4404008435060704700213A
:1028C000714A20321170704A82F82010012802D01B
:1028D00004280AD104E001216B4A2032117005E07E
:1028E0000521694A2032117000E000BF00BF704727
:1028F0006949086070476449096A0143624A116284
:102900007047654944390860704730B5002100229E
:10291000002400235C4D6D6805F00C0121B10429F1
:1029200005D0082923D105E05C4D056022E05B4D10
:1029300005601FE0544D6D6805F47012524D6D68CE
:1029400005F48034022505EB92421CB9544D5543E1
:1029500005600BE04C4D6D6805F400351DB1504D20
:102960005543056002E04D4D5543056002E04B4D77
:10297000056000BF00BF444D6D6805F0F001090916
:10298000484D6B5C0568DD4045603F4D6D6805F462
:10299000E061090A434D6B5C4568DD4085603A4D56
:1029A0006D6805F46051C90A3E4D6B5C4568DD40B9
:1029B000C560354D6D6805F44041890B3A4D6B5C3F
:1029C000C568B5FBF3F5056130BD29B12E4A5269E2
:1029D00002432D4B5A6104E02B4A526982432A4B31
:1029E0005A61704729B1284A92690243264B9A617D
:1029F00004E0254A92698243234B9A61704729B1CA
:102A0000214AD2690243204BDA6104E01E4AD269AE
:102A100082431D4BDA61704729B11B4AD2680243D9
:102A2000194BDA6004E0184AD2688243164BDA6028
:102A3000704729B1144A12690243134B1A6104E02A
:102A4000114A12698243104B1A617047124940398A
:102A5000086070470F49C86470470B49C8717047D8
:102A60000948406A40F08070074948627047014653
:102A70000020054A92680A400AB1012000E00020C7
:102A80007047014988727047001002400000FFF84B
:102A9000FFFFF6FE000042428004424200127A002C
:102AA00000093D00FA1800200A19002010B504465C
:102AB000FE48844208D10121C014FFF7ADFF002178
:102AC000E014FFF7A9FFC4E0B4F1804F08D1012161
:102AD0000846FFF7AEFF00210120FFF7AAFFB8E08C
:102AE000F348844208D101210220FFF7A2FF002110
:102AF0000220FFF79EFFACE0EE48844208D101219E
:102B00000420FFF796FF00210420FFF792FFA0E0CA
:102B1000E948844208D101210820FFF78AFF0021FB
:102B20000820FFF786FF94E0E448844208D10121A1
:102B30001020FFF77EFF00211020FFF77AFF88E0CA
:102B4000DF48844208D101212020FFF772FF0021D5
:102B50002020FFF76EFF7CE0DA48844208D1012193
:102B60004014FFF759FF00216014FFF755FF70E094
:102B7000D548844209D10121C804FFF74DFF002147
:102B80004FF40020FFF748FF63E0D048844209D1AA
:102B900001210805FFF740FF00214FF48010FFF7E7
:102BA0003BFF56E0CA48844209D101214805FFF79E
:102BB00033FF00214FF40010FFF72EFF49E0C54816
:102BC000844208D101214020FFF733FF002140203B
:102BD000FFF72FFF3DE0C048844208D1012180204B
:102BE000FFF727FF00218020FFF723FF31E0BB48DC
:102BF000844208D101218015FFF71BFF0021A01599
:102C0000FFF717FF25E0B648844209D101210804E7
:102C1000FFF702FF00214FF48030FFF7FDFE18E0C0
:102C2000B048844209D101214804FFF7F5FE002194
:102C30004FF40030FFF7F0FE0BE0AB48844208D1C0
:102C400001218804FFF7E8FE00214FF48020FFF700
:102C5000E3FE10BD00220288944B98420ED0994B9F
:102C600098420BD0B0F1804F08D0914B984205D0DC
:102C7000904B984202D0904B984204D14FF68F73FC
:102C80001A404B881A438D4B984207D08C4B984280
:102C900004D04FF6FF431A40CB881A4302808B883A
:102CA00083850B880385814B98420BD0854B9842D6
:102CB00008D08B4B984205D08A4B984202D08A4B61
:102CC000984201D10B7A038601238382704770B545
:102CD000002400220023058C4FF6FE763540058443
:102CE000028C8388048B4FF68F752C40B51E2C40C8
:102CF0000D882C43751E2A400D892A434D882A438E
:102D00006A4DA8420BD06F4DA84208D0744DA8421E
:102D100005D0744DA84202D0734DA84213D14FF68E
:102D2000F7752A404D892A434FF6FB752A408D8856
:102D30002A434FF6FF652B404FF6FF552B408D89F8
:102D40002B43CD892B4383800483CD8885860284E1
:102D500070BD70B5002400220023058C4FF6EF767D
:102D600035400584028C8388048B48F6FF752C401F
:102D70004FF6FF452C400D884FF6FF7606EA0525F5
:102D80002C434FF6DF752A400D8906EA05152A43C4
:102D90004D8806EA05152A43444DA84202D0494D04
:102DA000A8421DD14FF67F752A404D894FF6FF7618
:102DB00006EA05152A434FF6BF752A408D8806EAB4
:102DC00005152A434FF6FF352B404FF2FF752B4078
:102DD0008D8906EA85052B43CD8906EA85052B43B7
:102DE00083800483CD880587028470BD70B500247C
:102DF00000220023058C4FF6FF6635400584028CC7
:102E00008388848B4FF68F752C404FF6FC752C40D1
:102E10000D882C434FF6FF552A400D894FF6FF765B
:102E200006EA05252A434D8806EA05252A431F4D53
:102E3000A84202D0234DA8421DD14FF2FF752A406F
:102E40004D894FF6FF7606EA05252A434FF6FF35F2
:102E50002A408D8806EA05252A434EF6FF752B4049
:102E60004DF6FF752B408D8906EA05152B43CD895C
:102E700006EA05152B4383808483CD8885870284E9
:102E800070BD70B5002200230024058C4EF6FF763D
:102E900035400584038C8488828B48F6FF752A4070
:102EA0004FF6FF452A400D8820E00000002C01402D
:102EB0000004004000080040000C004000100040EA
:102EC0000014004000340140004C0140005001401B
:102ED0000054014000180040001C00400020004049
:102EE0000040014000440140004801404FF6FF7699
:102EF00006EA05252A434DF6FF752B400D8906EAA3
:102F000005352B434D8806EA05352B43FA4DA8427B
:102F100002D0FA4DA84208D14BF6FF752C408D899E
:102F20004FF6FF7606EA85152C4384808283CD8890
:102F3000A0F84050038470BD828B4FF2FF331A40DB
:102F40008283828B4FF6FF7303EA01231A43828345
:102F50007047F0B50C461546002200210026078C6C
:102F60004EF6FF7C07EA0C070784828B018C4FF634
:102F7000FF7707EA043640F6FF473A404FF6FF77FF
:102F800007EA05273A434FF6FF7707EA03373A4344
:102F9000D94FB8420ED0D94FB8420BD0B0F1804FC4
:102FA00008D0D74FB84205D0D64FB84202D0D64F3E
:102FB000B84206D14DF6FF77394046F48057394381
:102FC00005E047F6FF57394044F480573943828380
:102FD0000184F0BD828B4FF6F3731A408283828B9B
:102FE0000A4382837047F0B50C4615460022002143
:102FF0000026078C4FF6FF6C07EA0C070784828BCC
:10300000018C4FF6FF7707EA04264FF60C773A401B
:103010004FF6FF7707EA03172F433A43B64FB842FC
:103020000ED0B64FB8420BD0B0F1804F08D0B44F9D
:10303000B84205D0B34FB84202D0B34FB84206D120
:103040004FF6FF57394046F48077394305E04FF299
:10305000FF57394044F48077394382830184F0BDBF
:10306000028B4FF2FF331A400283028B4FF6FF733D
:1030700003EA01231A4302837047F0B50C46154654
:10308000002200210026078C4FF6EF7C07EA0C0790
:103090000784028B018C4FF6FF7707EA041640F68F
:1030A000FF473A404FF6FF7707EA03373A434FF6B8
:1030B000FF7707EA05273A438F4FB8420ED08F4F6C
:1030C000B8420BD0B0F1804F08D08D4FB84205D038
:1030D0008C4FB84202D08C4FB84206D14FF6DF7702
:1030E000394046F01007394305E04FF65F77394025
:1030F00044F01007394302830184F0BD028B4FF680
:10310000F3731A400283028B0A4302837047F0B5BF
:103110000C46154600220021068C4FF6FE773E40F5
:103120000684028B018C4FF60C7632407E1C06EA38
:1031300003162E433243704EB0420ED06F4EB04253
:103140000BD0B0F1804F08D06D4EB04205D06D4E1F
:10315000B04202D06C4EB04206D14FF6FD763140FF
:1031600044F00106314305E04FF6F576314044F076
:103170000106314302830184F0BD70B505460C465B
:103180005D4885420ED05D4885420BD0B5F1804F39
:1031900008D05B48854205D05A48854202D05A483B
:1031A000854200D100E000BF208850B92389A28861
:1031B00061882846FFF7ABFFE1882846FFF79EFFAE
:1031C00025E0208804280AD12389A288618828461E
:1031D000FFF753FFE1882846FFF742FF17E02088FA
:1031E00008280AD12389A28861882846FFF7FBFEB8
:1031F000E1882846FFF7EEFE09E02389A28861886E
:103200002846FFF7A6FEE1882846FFF795FE70BD29
:103210002DE9F04105460C4600260127608808B9D3
:10322000022600E00026A088012801D1022700E044
:1032300001272088A0B92389A28861882846FFF742
:1032400066FFE1882846FFF759FF23893A46314651
:103250002846FFF712FFE1882846FFF701FF13E039
:103260002389A28861882846FFF707FFE18828465E
:10327000FFF7F6FE23893A4631462846FFF747FF17
:10328000E1882846FFF73AFFBDE8F0810A884B88BD
:103290001A438B881A43CB881A430B891A434B89EC
:1032A0001A438B891A43A0F8442070474FF6FF71E8
:1032B000818000210180C18041800172704700211E
:1032C000018041808180C180018141818181C181F2
:1032D0007047002101804180012181800021C1804F
:1032E000018170470021018041808180C18001817E
:1032F0004181818170470000002C01400034014071
:103300000004004000080040000C004021B1028889
:1033100042F00102028004E002884FF6FE731A4078
:103320000280704731B1B0F8442042F40042A0F866
:10333000442005E0B0F84420C2F30E02A0F8442077
:1033400070471AB183890B43838102E083898B43E1
:10335000838170478182704741EA0203A0F84830B8
:1033600070471AB183890B43838102E083898B43C1
:103370008381704701894FF6F872114001817047CF
:103380000A46002101894FF68F73194011430181CC
:10339000704730B504460D4629462046FFF7F0FF3A
:1033A000208940F00700208130BD2DE9F04104461E
:1033B0000D4616461F46602D06D13B46012231467A
:1033C0002046FFF75AFE05E03B46012231462046E3
:1033D000FFF79DFE29462046FFF7D2FF208940F0E7
:1033E00007002081BDE8F08130B50C46002101893D
:1033F000C9B24FF6FF7505EA032515432543294356
:10340000018130BD2DE9F04105460E46174698462C
:10341000002443463A4631462846FFF7E5FF2C890B
:103420004FF6F870044044F007044FF68F700440E4
:1034300044F070042C81BDE8F081F0B504460D46DF
:1034400016461F463B46324629462046FFF7CCFF2C
:10345000208940F480402081F0BD01858282704740
:103460000A46002101884FF68F73194011430180ED
:103470007047F0B50C4615461E4600210022002379
:103480000189028B038C4FF6F877394021434FF6C0
:10349000FC473A4040F201173A434FF6DD773B4094
:1034A0004FF6FF7707EA06172F433B43018102835C
:1034B0000384F0BD0A460021018B4FF68F7319403B
:1034C0001143018370470A460021018B48F6FF73C0
:1034D00019404FF6FF7303EA022319430183704733
:1034E0000A460021818B4FF68F7319401143818367
:1034F00070470A460021818B48F6FF7319404FF64A
:10350000FF7303EA022319438183704721B10288C4
:1035100042F08002028004E002884FF67F731A4076
:103520000280704721B1828842F00402828004E068
:1035300082884FF6FB731A408280704721B18288DF
:1035400042F00802828004E082884FF6F7731A4046
:103550008280704721B1828842F00102828004E0BB
:1035600082884FF6FE731A40828070470A46002117
:10357000018B4FF6F77319401143018370470A46D8
:103580000021018B4FF2FF7319404FF6FF7303EADE
:1035900002231943018370470A460021818B4FF6AD
:1035A000F77319401143818370470A460021818BCC
:1035B0004FF2FF7319404FF6FF7303EA02231943DA
:1035C000818370470A460021018B4FF6FB73194037
:1035D0001143018370470A460021018B4FF6FF33E8
:1035E00019404FF6FF7303EA022319430183704722
:1035F0000A460021818B4FF6FB73194011438183EA
:1036000070470A460021818B4FF6FF3319404FF671
:10361000FF7303EA02231943818370470A4600219E
:10362000018B4FF67F7319401143018370470A469F
:103630000021018BC1F30E014FF6FF7303EA022351
:103640001943018370470A460021818B4FF67F732F
:1036500019401143818370470A460021818BC1F3D1
:103660000E014FF6FF7303EA02231943818370476B
:103670000A460021018C4FF6FD7319401143018465
:1036800070470A460021018C4FF6F7731940114329
:10369000018470470A460021018C4FF6DF73194000
:1036A0004FF6FF7303EA02131943018470470A4679
:1036B0000021018C4FF67F7319404FF6FF7303EA28
:1036C00002131943018470470A460021018C4FF60A
:1036D000FF5319404FF6FF7303EA02231943018495
:1036E00070470A460021018C4FF2FF7319404FF6D4
:1036F000FF7303EA02231943018470470A4600213D
:10370000018C4DF6FF7319404FF6FF7303EA023345
:1037100019430184704730B5002301248C40A3B2C3
:10372000048C9C430484048C02FA01F5ADB22C4352
:10373000048430BD30B5002304248C40A3B2048C33
:103740009C430484048C02FA01F5ADB22C4304843A
:1037500030BD70B5034600200024184618300125FE
:103760008D40ACB21D8CA5431D8409B1082909D137
:1037700000EB6100056825F07005056005681543DC
:1037800005600EE00D1FC5F34E052844056825F4BD
:10379000E045056005684FF6FF7606EA02263543E8
:1037A000056070BD21B1028842F00202028004E08F
:1037B00002884FF6FD731A400280704721B10288DB
:1037C00042F00402028004E002884FF6FB731A40C4
:1037D0000280704721B1828842F08002828004E03A
:1037E00082884FF67F731A408280704702884FF6B6
:1037F000F7731A40028002880A4302807047828869
:103800004FF68F731A40828082880A438280704705
:1038100002894FF6F8731A40028102890A43028135
:10382000704702894FF67F731A40028102890A436A
:103830000281704781847047818570478186704717
:103840000187704781877047A0F840107047028851
:103850004FF6FF431A40028002880A4302807047F5
:103860000146888E70470146088F70470146888F51
:1038700070470146B1F8400070470146888C704798
:103880000146088D704702460020138A0B400BB199
:10389000012000E000207047CA430282704730B523
:1038A0000246002000230024158A05EA01039589B9
:1038B00005EA010413B10CB1012000E0002030BD85
:1038C000CA4302827047000010B50446FB48844298
:1038D00009D101218803FFF79FF800214FF48040B0
:1038E000FFF79AF832E0F648844209D101214804F2
:1038F000FFF79FF800214FF40030FFF79AF825E01A
:10390000F048844209D101218804FFF792F8002190
:103910004FF48020FFF78DF818E0EB48844209D17E
:103920000121C804FFF785F800214FF40020FFF7BC
:1039300080F80BE0E548844208D101210805FFF733
:1039400078F800214FF48010FFF773F810BD2DE9CF
:10395000F04786B005460E460024A24600BFA146A9
:103960000027B08900B100BF2F462C8A4CF6FF70AB
:103970000440F08804432C82AC894EF6F3100440D6
:10398000B08831890843718908430443AC81AC8A0B
:103990004FF6FF400440B0890443AC8201A8FEF713
:1039A000B4FFC648874202D1DDF810A001E0DDF87F
:1039B0000CA0A88900F4004040B10AEBCA0000EB5B
:1039C0000A1031684900B0FBF1F807E00AEBCA00C1
:1039D00000EB0A1031688900B0FBF1F86420B8FBF5
:1039E000F0F004012009642101FB1089A88900F48A
:1039F000004040B1322000EBC900B0FBF1F000F014
:103A00000700044308E0322000EB09106421B0FBFA
:103A1000F1F000F00F0004432C8106B0BDE8F08700
:103A20004FF41651016000218180C18001810C2179
:103A3000418100218181704710B502460020108A23
:103A40004FF2FF0318400B884C8823438C88234394
:103A5000CC8823431843108210BD0021018041808F
:103A60008180C180704721B1828942F400528281F5
:103A700004E082894DF6FF731A4082817047F0B5E9
:103A80000346002400260025002040F66A17B942AC
:103A900000D100BF1846C1F3421401F01F060127F0
:103AA00007FA06F5012C01D10C3004E0022C01D1FB
:103AB000103000E014301AB107682F43076002E0AD
:103AC0000768AF430760F0BD1AB1838A0B43838256
:103AD00002E0838A8B4383827047028A4FF6F07339
:103AE0001A400282028A0A430282704782894FF298
:103AF000FF731A40828182890A438281704721B113
:103B0000828942F00202828104E082894FF6FD73CD
:103B10001A4082817047028A4FF6DF731A40028290
:103B2000028A0A430282704721B1028A42F480422B
:103B3000028204E0028A4BF6FF731A400282704749
:103B4000C1F308028280704701468888C0F30800EC
:103B50007047818941F0010181817047028BD2B2A7
:103B60000283028B42EA012202837047028B02F435
:103B70007F420283028B0A430283704721B1828A0B
:103B800042F02002828204E0828A4FF6DF731A40FC
:103B90008282704721B1828A42F01002828204E060
:103BA000828A4FF6EF731A408282704721B1828A6F
:103BB00042F00802828204E0828A4FF6F7731A40CC
:103BC0008282704721B1828942F40042828103E0FF
:103BD0008289C2F30E028281704721B1828A42F447
:103BE0000062828204E0828A4FF2FF731A4082826E
:103BF0007047828A4FF6FB731A408282828A0A4398
:103C00008282704721B1828A42F00202828204E0FD
:103C1000828A4FF6FD731A40828270470246002066
:103C2000B1F5007F00D100BF13880B400BB101201C
:103C300000E00020704701F40072B2F5007F00D16F
:103C400000BFCA430280704770B5024600240023BB
:103C50000025002040F66A16B14200D100BFC1F332
:103C6000421501F01F03012606FA03F3012D02D1CC
:103C70009689334006E0022D02D1168A334001E0D6
:103C8000968A33400C12012606FA04F41688344052
:103C900013B10CB1012000E0002070BD10B500226E
:103CA000002340F66A14A14200D100BF0A12012489
:103CB0009440A3B2DC43048010BD000000380140F2
:103CC0000044004000480040004C004000500040CC
:103CD0000CB50020019000906C48006840F48030E2
:103CE0006A49086000BF6948006800F4003000902D
:103CF0000198401C0190009818B90198B0F5A06F88
:103D0000F1D16248006800F4003010B10120009049
:103D100001E0002000900098012843D15C48006831
:103D200040F010005A4908600846006820F003007F
:103D300008600846006840F0020008605348406888
:103D4000524948600846406848600846406840F468
:103D5000806048600846406820F47C10486008464F
:103D6000406840F4E81048600846006840F0807001
:103D7000086000BF4548006800F000700028F9D0D6
:103D80004248406820F003004049486008464068C7
:103D900040F00200486000BF3C48406800F00C0062
:103DA0000828F9D10CBD10B5FFF792FF10BD10B572
:103DB0003648006840F00100344908600846406811
:103DC0003449084031494860084600683249084093
:103DD0002E4908600846006820F4802008600846E4
:103DE000406820F4FE0048604FF41F008860FFF731
:103DF000DAFF4FF000602949086010BD10B50021BE
:103E000000200022214B5B6803F00C0121B1042942
:103E100006D0082928D107E0214B224C236027E057
:103E20001F4B204C236023E0184B5B6803F4701099
:103E3000164B5B6803F48032022303EB904022B9F7
:103E4000194B4343174C23600DE0104B5B6803F4A0
:103E5000003323B1144B4343124C236003E0104B57
:103E60004343104C236003E00D4B0E4C236000BF16
:103E700000BF064B5B68C3F303130C4CE15C094BBA
:103E80001B68CB40074C236010BD000000100240AF
:103E9000002002400000FFF8FFFFF6FE08ED00E002
:103EA00000127A001019002000093D0014190020AA
:103EB00030B505462A460B4612F8010B13F8014BA4
:103EC00008B1A042F8D01CB1002802D06D1CF1E767
:103ED000284630BD421C10F8011B0029FBD1801A76
:103EE000704730B50B46014600202022012409E02E
:103EF00021FA02F59D4205D303FA02F5491B04FAA3
:103F000002F52844151EA2F10102F1DC30BD2DE9B5
:103F1000F05F0546002092469B468846064681464D
:103F200040241BE0284641464746224600F0F9F966
:103F300053465A46C01A914110D31146184622469C
:103F400000F0E0F92D1A67EB01084F4622460120E8
:103F5000002100F0D7F917EB00094E41201EA4F113
:103F60000104DFDC484631462A464346BDE8F09F5F
:103F70002DE9FE4F804681EA0300C00F0C460090F9
:103F800021F0004123F00045B8EB0200A94105D221
:103F90004046214690461C460B46024623F0004010
:103FA000104347D0270DC7F30A00C3F30A5102900C
:103FB000401A019040286BDAC3F3130040F4801BD1
:103FC0000098924620B10023D2EB030A63EB0B0B5F
:103FD00001985946C0F14002504600F093F9064658
:103FE0000D4650465946019A00F0ABF910EB080017
:103FF0006141002487EA115284EAE7731A4340D0F2
:10400000009A62B3019A012A4FEA075215DC001B9D
:1040100061EB02014FF0004202EA0752CDE9004293
:10402000001C41F5801132462B4600F0ABF903B07D
:10403000BDE8F08F40462146F9E7001B61EB020125
:10404000001C41F5801300185B412018A2F50017F1
:1040500047EB030140EAD570B6196D4111E06D08D8
:104060004FEA360645EAC0754FEA0752001B61EB7E
:104070000201001C41F5801149084FEA3000001987
:10408000514132462B4603B0BDE8F04F00F06BB90A
:104090000098012240000023D0EB020263EBE073A2
:1040A000009821464FEAE074B8EB000061EB040190
:1040B000E9E783F000435BE781F0004158E72DE931
:1040C000FE4F81EA030404F0004421F00041009413
:1040D0004FF0000B23F0004350EA01045ED052EA97
:1040E00003045BD0C3F30A54C1F30A552C44A4F271
:1040F000F3340194A0FB0254C1F3130141F4801185
:10410000C3F3130343F4801301FB024400FB034E8B
:10411000840A970A44EA815447EA8357A4FB076854
:1041200002958D0A05FB07854FEA932C04FB0C547E
:104130002705029D4FEA065847EA1637B5EB0805F2
:104140006EEB070C870E920E47EA811742EA831244
:10415000A7FB0201B6EB0B0164EB00042B0D43EA55
:104160000C335E1844EB1C50DA465146E7FB020163
:10417000C5F313044FEA0B3343EA14534FEA0432F6
:10418000019C43EA0603A4F10C040294009CCDE9CF
:1041900000B400F0F7F803B0BDE8F08F002001464E
:1041A000F9E72DE9F04D81EA030404F0004B21F01A
:1041B000004514464FF0000A23F0004150EA050282
:1041C00020D054EA01021DD0C5F30A570246C5F3B8
:1041D0001303C1F31300C1F30A5640F4801543F4EE
:1041E0008013A7EB0608101BD64608F2FD3873EBC8
:1041F000050002D308F1010801E092185B41B8F113
:10420000000F03DA00200146BDE8F08D00204FF4D6
:104210008011064684460EE0171B73EB050705D395
:10422000121B63EB050306434CEA010C49084FEAF5
:10423000300092185B4150EA0107EDD152EA0300C9
:1042400012D082EA040083EA0501084305D0101B5E
:10425000AB4106D20122002306E000224FF00043CA
:1042600002E06FF0010253101AEB06004CEB08510C
:1042700010EB0A0041EB0B01BDE8F04D00F073B804
:10428000C1F30A52C1F3130140F2FF3341F480112C
:104290009A4202DA00200146704740F233439A42C4
:1042A000A2F2334202DC524200F03BB800F02AB8DE
:1042B00030B5041E71F1000404DB4FF000444042AD
:1042C00064EB0101141E73F1000405DB1C464FF082
:1042D0000043524263EB0403994208BF904230BD51
:1042E000064C074D06E0E06840F0010394E8070043
:1042F00098471034AC42F6D3FBF7FCFE1868000870
:1043000038680008202A04DB203A00FA02F1002075
:1043100070479140C2F1200320FA03F31943904003
:104320007047202A04DB203A21FA02F0002170476E
:1043300021FA02F3D040C2F120029140084319460D
:104340007047202A06DBCB17203A41FA02F043EAF5
:10435000E07306E041FA02F3D040C2F1200291403E
:1043600008431946704710B5141E73F1000408DAAB
:10437000401C41F1000192185B411A4301D120F029
:10438000010010BD2DE9F04D92469B4611B1B1FAE6
:1043900081F202E0B0FA80F220329046FFF7B2FFDD
:1043A00004460F4640EA0A0041EA0B0153465A46CA
:1043B000084313D0114653EA010019D0C8F1400256
:1043C0005046FFF7AEFF05460E4650465946424658
:1043D000FFF798FF084305D0012004E02046394646
:1043E000BDE8F08D0020054346EAE0762C433743D4
:1043F0000A986305E40AA0EB08000022FD0A44EADB
:1044000047540A3002D500200146E9E7010510199A
:104410006941DDE9084500196941BDE8F04DA2E7B1
:1044200070B58C1810F8015B15F0070301D110F876
:10443000013B2A1106D110F8012B03E010F8016BA3
:1044400001F8016B5B1EF9D12B0705D40023521E26
:104450000DD401F8013BFAE710F8013BCB1A921C8E
:1044600003E013F8015B01F8015B521EF9D5A1428C
:10447000D8D3002070BD00000FB4054B10B503A9C0
:10448000044A029800F0ECF810BC5DF814FB000040
:10449000590600082419002037B514460846064B73
:1044A0006A46214600F03CFA04466946002000F0C6
:1044B000CEFD20463EBD00004F50000802E008C877
:1044C000121F08C1002AFAD170477047002001E08E
:1044D00001C1121F002AFBD1704700002DE9FF5FC8
:1044E00082B00021DDE90430020DDDF840B0034365
:1044F00018D044F61050A2F2FF324243151411981E
:1045000001281FD0A5EB0B00401C5FEA000A4FF00A
:1045100000064E4FDFF83891B046504615D5CAF127
:10452000000413E0119801244AA3012801D16FEA85
:104530000B010298119AC0E90031C0E9024206B0AD
:10454000BDE8F09FCBF10000DFE704460021404AC0
:10455000491842EB0450CDE9001012E0E00707D003
:1045600032463B4640464946FFF7A9FD804689460C
:1045700032463B4610461946FFF7A1FD06460F4658
:104580006410002CEAD1DDE90401DDE90023BAF171
:10459000000F06DAFFF793FD42464B46FFF78FFD0B
:1045A00005E0FFF7FEFD42464B46FFF7FAFD0446E5
:1045B0000E460022284BFFF77BFE03D84FF0FF305A
:1045C000014607E00022254B20463146FFF7D0FC8C
:1045D000FFF756FE102409E0002C0ADB0A22002314
:1045E000FFF795FC039B30321A55641E50EA010216
:1045F000F2D1641C039AC4F111031444119A012AE4
:1046000003D0012208430DD10AE0084304D0002062
:104610004FF0110B119072E7A3EB0B056D1E0DE02F
:104620005B4504DD4FF0000205F1010504E003DA0B
:104630004FF00002A5F10105002AECD00298119973
:10464000C0E90231C0E9004579E7000000001440EC
:104650000000F03F300000000000F0430000E03FA9
:104660002DE9FF4F8DB09B460F460446002606E01D
:1046700025280BD05A460F999047641C761C207849
:104680000028F5D111B03046BDE8F08F0025A846CE
:104690000122984900E0054314F8013F203B02FA4B
:1046A00003F00842F7D120782E2817D114F8010F13
:1046B00045F004052A280ED06FF02F022078A0F1D3
:1046C000300109290AD808EB880102EB410100EB0F
:1046D0000108641CF2E757F8048B641C20786C28EE
:1046E0000DD004DC4C2812D06A2811D104E07428C3
:1046F0000DD07A280CD10AE045F4001507E0617866
:1047000045F48015814202D1641C05F58015641CB6
:104710002278692A45D008DC002AB3D0582A69D00B
:10472000632A10D0642A08D13BE0702A67D0732A2C
:1047300013D0752A5CD0782A5CD010465A460F995F
:104740009047761CD3E017F8040B8DF8000000208A
:104750008DF80100E946012003E057F8049B4FF073
:10476000FF3069074FF0000501D40AE06D1C454594
:104770000DDA8542FADB19F805100029F6D106E0BA
:104780006D1C8542FCDB19F805100029F8D12E4478
:1047900004E019F8010B5A460F9990476D1EF8D2A4
:1047A000A5E00A200021CDE90801C5F30250022846
:1047B0000DD001CFC117031E71F100030DDA4FF0C8
:1047C000000CD0EB0C006CEB01012D2308E0FF1D69
:1047D00027F00707F7E80201EDE72B0504D52B23A7
:1047E0008DF8283001233BE0EB0739D02023F7E791
:1047F0000A2000E010200021CDE9080107E0102088
:10480000002145F00405CDE908014FF00808C5F383
:10481000025002280FD001CF00214FF0000A2B07D1
:104820001FD5702A0DD0DDE908C38CF0100C5CEAAE
:10483000030C0CD015E0FF1D27F00707F7E8020175
:10484000EBE740228DF828204FF0010A0BE050EAF8
:10485000010306D030238DF828308DF8292002235B
:104860009A46582A04D024A20DF120090B9209E09F
:1048700026A2F9E7DDE90823FFF749FB0B9B9B5CC8
:1048800009F8013D50EA0102F4D1ADEB09002030F6
:104890000890680701D44FF001080899884502DDA7
:1048A000A8EB010000E000208046002506E00AA8F1
:1048B0005A46405D0F9990476D1C761C5545F6DBB6
:1048C00004E030205A460F999047761CB8F1000159
:1048D000A8F10108F5DC05E019F8010B5A460F991B
:1048E0009047761C0899481E08900029F4DC641C47
:1048F000C5E600000928010030313233343536373F
:10490000383961626364656600000000303132331B
:1049100034353637383941424344454600000000BB
:104920002DE9FF4F95B09B468946064600250FE2CC
:10493000252877D100242746F84A0121059400E074
:10494000044316F8013F203B01FA03F01042F7D16F
:1049500030782A2811D06FF02F033078A0F1300280
:10496000092A16D8059A44F0020402EB820203EBEE
:1049700042021044761C0590EFE759F8042B05928B
:10498000002A03DA504244F40054059044F0020433
:10499000761C30782E2816D116F8010F44F0040446
:1049A0002A280DD06FF02F023078A0F13003092BA8
:1049B00009D807EB870302EB4303C718761CF3E71C
:1049C00059F8047B761C30786C280FD006DC4C2814
:1049D00017D068280DD06A2814D104E0742810D0AC
:1049E0007A280FD10DE044F400140AE044F4801456
:1049F00001E044F440147278824202D104F580143C
:104A0000761C761C307866280BD013DC582877D0BB
:104A100009DC002875D04528F6D04628F4D0472870
:104A20001AD19DE118E0632835D0642879D0652833
:104A300012D195E1702873D008DC6728F1D069287D
:104A40006FD06E280DD06F2806D1B5E073282CD01A
:104A5000752875D0782874D05A46179990476D1CE0
:104A600075E1C4F30250022809D003280DD0D9F80B
:104A7000001004280DD00D6009F1040967E1D9F890
:104A80000010EA17C1E90052F6E7D9F800100D80CE
:104A9000F2E70D70F0E719F8041B8DF80010002004
:104AA0008DF80100EA46012003E059F804AB4FF00D
:104AB000FF3061074FF0000102D40DE008F1010161
:104AC0008846B9420FDA8045F8DB1AF80810002949
:104AD000F4D108E008F1010188468142FADB1AF8B6
:104AE00008100029F6D105985B46A0EB080721467F
:104AF0003846179A00F094FA284400EB080507E0BE
:104B00004DE029E10DE01AF8010B5A46179990473C
:104B1000B8F10108F7D25B4621463846179A13E1EF
:104B200042E00A220092C4F302524FF0000A022A25
:104B300008D059F804CB032A4FEAEC710AD00DE0F3
:104B400029E02AE009F1070121F00702F2E802C199
:104B5000914609E00FFA8CFC4FEAEC71042A03D16C
:104B60004FFA8CFC4FEAEC71002907DA0A46002163
:104B7000DCF1000C61EB02012D2202E0220504D5DC
:104B80002B228DF80420012203E0E20701D020222D
:104B9000F7E7904659E00A2102E010220DE01021CB
:104BA0004FF0000A00910BE010224FF0000A44F091
:104BB00004040827009203E008224FF0000A009244
:104BC000C4F30252022A05D059F804CB0021032A6B
:104BD00008D009E009F1070121F00702F2E802C15B
:104BE000914605E01FFA8CFC042A01D10CF0FF0C61
:104BF0004FF00008220728D5702806D0009B83F0CC
:104C0000100353EA0A0305D00EE040228DF8042079
:104C1000012208E05CEA010206D030228DF804206F
:104C20008DF8050002229046009B83F0080353EAAA
:104C30000A030AD15CEA010201D1620705D53022DC
:104C40008DF804204FF001087F1E582804D034A0AE
:104C500003900EA802900DE036A0F9E75346604697
:104C6000009AFFF754F984460398825C0298401E2C
:104C7000029002705CEA0100F0D1029806A9081ABD
:104C800000F1200A600702D524F4803400E00127F7
:104C9000574502DDA7EB0A0000E0002000EB0A0107
:104CA000009005984144401A0590E00306D45B4605
:104CB0002146179A059800F0B3F90544002706E04D
:104CC00001A85A46C05D179990476D1C7F1C474547
:104CD000F6DBE0030CD55B462146179A059800F0F9
:104CE0009FF9054404E030205A46179990476D1CFF
:104CF0000099481E00900029F5DC08E0029802990E
:104D00005A460078491C0291179990476D1CBAF1D8
:104D10000001AAF1010AF1DC65E1000009280100A7
:104D20003031323334353637383961626364656621
:104D300000000000303132333435363738394142E3
:104D4000434445460000000000F058F90544761C35
:104D5000307800287FF4ECAD19B02846BDE8F08F1C
:104D6000620700D4062709F1070222F0070CFCE8CD
:104D70000223E14603F000485FEA080C02D00FF27C
:104D8000702C0DE05FEA045C02D50FF2682C07E09E
:104D90005FEAC47C02D00FF2602C01E0AFF2700C2D
:104DA0004FF0FF3823F00043CDF850C065280CD0F9
:104DB00006DC452809D046281DD047283DD13DE0D6
:104DC000662818D067287ED138E00021112F01DB3A
:104DD000112000E0781CCDE9000106A90EA8FFF71C
:104DE0007DFBDDE90F010E9A03910021009207F18E
:104DF000010A04914DE04FF000400097CDE9011009
:104E000006A90EA8FFF76AFBDDE90F0203920E9BCD
:104E100011990022DDF80CA00093049211B9791CBD
:104E200000EB010AB7EB0A0004D4C0F1FF3007F130
:104E3000010A0490AAEB0700019044E0012F00DA78
:104E400001270021112F01DD112000E03846CDE9B6
:104E5000000106A90EA8FFF741FBDDE90F010E9A3C
:104E60000391002104910092BA4621070CD40399C2
:104E7000514500DA8A46BAF1010F05DD009AAAF120
:104E80000101515C302908D0B84202DA10F1040F58
:104E900006DA0121CDE9011015E0AAF10101E9E7E7
:104EA000002805DC049901440491AAEB000102E00A
:104EB000411C514500DD8A460499401A401C01906E
:104EC0004FF000400290200704D40198504501DBC8
:104ED000CDF8048000208DF84F0002980DF14F07A7
:104EE000B0F1004F25D02B200E9002984FF0020811
:104EF00000280CDA404202902D200E9007E00A2193
:104F00000298FEF7EEFF3031029007F8011DB8F16C
:104F10000001A8F10108F2DC02980028EFD1791E07
:104F20000E980870307800F0200040F0450007F837
:104F3000020D12A8C01B00F107081498007800B1F8
:104F4000012000EB0A01019801EBE0710598414452
:104F5000401A401E0590E00306D45B462146179A8E
:104F6000059800F05DF805441498007818B15A4689
:104F7000179990476D1CE00324D55B462146179A8C
:104F8000059800F04DF805441CE00498002807DB64
:104F9000DDE90301884203DD0098405C179901E0D8
:104FA000179930205A469047049805F10105401C96
:104FB00004900198401E019004D12E205A46179962
:104FC00090476D1CBAF10001AAF1010ADDDC05E091
:104FD00017F8010B5A46179990476D1CB8F100015C
:104FE000A8F10108F4DC5B462146179A0598ABE668
:104FF0002D0000002B000000200000002DE9F041F2
:10500000044600251E461746880404D405E03946A8
:105010002020B0476D1C641EF9D52846BDE8F081FC
:105020002DE9F041044600251E469046C80301D5EF
:10503000302700E02027880404D505E041463846A3
:10504000B0476D1C641EF9D52846BDE8F0810A689A
:10505000531C0B601070704700000000000000003F
:1050600000000000000000003F40000000000000C1
:1050700000003000400030004000000009000BC07C
:105080003D000BC03D00090018C024407FE02240D5
:1050900031800000180024C01B000D8032400180C8
:1050A00003801C4027401C80074000401000600027
:1050B00000000000000000000000000000001F8051
:1050C000204040200000402020401F8000000000C1
:1050D000090006001F80060009000000040004000B
:1050E0003F80040004000000001000600000000089
:1050F000000000000400040004000400040000009C
:10510000000000400000000000000000002001C07E
:1051100006003800400000001F8020402040204052
:105120001F800000000010403FC000400000000051
:1051300018C0214022402440184000001080204028
:10514000244024401B80000002000D0011003FC0DD
:10515000014000003C802440244024402380000083
:105160001F80244024403440038000003000200091
:1051700027C03800200000001B8024402440244029
:105180001B8000001C0022C0224022401F80000023
:1051900000000000084000000000000000000000C7
:1051A0000460000000000000000004000A0011007C
:1051B00020804040090009000900090009000000A2
:1051C00000004040208011000A0004001800200068
:1051D00023402400180000001F8020402740294061
:1051E0001F400000004007C039000F0001C0004010
:1051F00020403FC0244024401B8000001F802040EE
:10520000204020403080000020403FC0204020400F
:105210001F80000020403FC024402E4030C00000CE
:1052200020403FC024402E00300000000F001080BE
:10523000204022403380020020403FC00400040090
:105240003FC02040204020403FC020402040000080
:105250000060202020203FC02000200020403FC0D0
:1052600024400B0030C0204020403FC02040004080
:10527000004000C03FC03C0003C03C003FC00000F5
:1052800020403FC00C4023003FC020001F80204032
:10529000204020401F80000020403FC024402400C8
:1052A000180000001F802140214020E01FA00000C6
:1052B00020403FC02440260019C0004018C02440B0
:1052C0002440224031800000300020403FC0204078
:1052D0003000000020003F80004000403F80200060
:1052E00020003E0001C0070038002000380007C041
:1052F0003C0007C038000000204039C0060039C01B
:10530000204000002000384007C038402000000046
:10531000304021C02640384020C00000000000007E
:105320007FE0402040200000000070000C0003805F
:10533000004000000000402040207FE0000000000E
:1053400000002000400020000000000000100010BD
:1053500000100010001000100000000040000000CD
:1053600000000000000002800540054003C000402E
:1053700020003FC004400440038000000000038080
:105380000440044006400000000003800440244024
:105390003FC000400000038005400540034000007E
:1053A000000004401FC0244024402000000002E010
:1053B000055005500650042020403FC00440040022
:1053C00003C000400000044027C00040000000006F
:1053D00000100010041027E00000000020403FC033
:1053E0000140070004C00440204020403FC000406E
:1053F0000040000007C0040007C0040003C0000014
:10540000044007C00440040003C0004000000380C3
:105410000440044003800000041007F004500440DE
:1054200003800000000003800440045007F00010D7
:10543000044007C0024004000400000000000640D1
:105440000540054004C00000000004001F80044027
:1054500000400000040007800040044007C00040F6
:105460000400070004C0018006000400060001C01B
:10547000070001C006000000044006C0010006C08D
:10548000044000000410071004E00180060004003E
:105490000000044005C00640044000000000000079
:1054A00004007BE040200000000000000000FFF04E
:1054B00000000000000040207BE00400000000002D
:1054C000400080004000200020004000000000005C
:1054D00000000000000000000000000000000000CC
:1054E00000001FCC000C00000000000000000800BD
:1054F000300060000800300060000000022003FC63
:105500001E20022003FC1E200220000000000E18B6
:1055100011043FFF10840C78000000000F0010847D
:105520000F3800C0077818840078000000780F84D6
:1055300010C411240E9800E40084000808006800DC
:1055400070000000000000000000000000000000EB
:10555000000007E01818200440020000000040028C
:105560002004181807E0000000000000024002407C
:1055700001800FF0018002400240000000800080A6
:1055800000800FF800800080008000000001000D06
:10559000000E00000000000000000000000000807D
:1055A0000080008000800080008000800000000CEF
:1055B000000C0000000000000000000000000006D9
:1055C000001800600180060018002000000007F0AD
:1055D000080810041004080807F000000000080480
:1055E00008041FFC000400040000000000000E0C72
:1055F00010141024104411840E0C000000000C182C
:1056000010041104110412880C700000000000E066
:105610000320042408241FFC0024000000001F981D
:10562000108411041104108810700000000007F0AD
:1056300008881104110418880070000000001C0084
:10564000100010FC13001C001000000000000E38B9
:1056500011441084108411440E380000000007002B
:10566000088C10441044088807F000000000000077
:105670000000030C030C000000000000000000000C
:105680000001010600000000000000000000008092
:10569000014002200410080810040000022002202B
:1056A000022002200220022002200000000010043C
:1056B00008080410022001400080000000000E00D5
:1056C0001200100C106C10800F00000003E00C188A
:1056D00013E4142417C4082807D000000004003C79
:1056E00003C41C40074000E4001C000410041FFC1D
:1056F0001104110411040E880070000003E00C185E
:1057000010041004100410081C10000010041FFCEA
:10571000100410041004080807F0000010041FFC17
:105720001104110417C410040818000010041FFC11
:105730001104110017C010000800000003E00C184D
:105740001004100410441C780040000010041FFCDA
:1057500010840080008010841FFC100400001004DE
:1057600010041FFC100410040000000000030001DE
:10577000100110011FFE10001000000010041FFC9B
:10578000110403801464181C1004000010041FFC92
:105790001004000400040004000C000010041FFCAE
:1057A0001F0000FC1F001FFC1004000010041FFC61
:1057B0000C04030000E010181FFC100007F008089C
:1057C000100410041004080807F0000010041FFC67
:1057D00010841080108010800F00000007F008185F
:1057E00010241024101C080A07F2000010041FFCEB
:1057F0001104110011C011300E0C000400000E1C29
:1058000011041084108410441C380000180010008B
:1058100010041FFC100410001800000010001FF8F6
:1058200010040004000410041FF8100010001E00F3
:1058300011E0001C007013801C0010001FC0103C01
:1058400000E01F0000E0103C1FC000001004180C16
:10585000163401C001C01634180C100410001C00CE
:10586000130400FC13041C00100000000804101CAA
:105870001064108413041C041018000000000000C1
:1058800000007FFE400240024002000000003000A5
:105890000C0003800060001C0003000000004002B8
:1058A000400240027FFE00000000000000000000F7
:1058B00020004000400040002000000000010001E6
:1058C0000001000100010001000100010000400092
:1058D00040002000000000000000000000000098D0
:1058E000012401440144014400FC000410001FFC99
:1058F00000880104010400880070000000000070AE
:105900000088010401040104008800000000007008
:1059100000880104010411081FFC0004000000F8C5
:10592000014401440144014400C800000000010496
:1059300001040FFC1104110411001800000000D62E
:1059400001290129012901C90106000010041FFCD9
:10595000008401000100010400FC000400000104B7
:10596000190419FC000400040000000000000003FA
:1059700000010101190119FE0000000010041FFCC4
:105980000024004001B4010C0104000000001004D8
:1059900010041FFC0004000400000000010401FCCE
:1059A0000104010001FC0104010000FC010401FCF0
:1059B000008401000100010400FC0004000000F864
:1059C000010401040104010400F80000010101FFC9
:1059D00000850104010400880070000000000070D0
:1059E000008801040104010501FF00010104010414
:1059F00001FC00840104010001800000000000CCD3
:105A00000124012401240124019800000000010068
:105A1000010007F80104010400000000010001F882
:105A2000000400040004010801FC000401000180DE
:105A30000170000C001001600180010001F0010CF8
:105A4000003001C00030010C01F001000000010431
:105A5000018C00740170018C0104000001010181BE
:105A60000171000E00180160018001000000018436
:105A7000010C013401440184010C0000000000000D
:105A80000000000001003EFC400240020000000057
:105A900000000000FFFF00000000000000004002C6
:105AA00040023EFC01000000000000000000600019
:105AB0008000800040004000200020000000000026
:105AC00000000000000000000000000000000000D6
:105AD00000000000000000000000000000000000C6
